:0D135B007F057E00121368D2B37F057E006F
:10136800D3EF9400EE9400400A000000EF1F70F0E5
:041378001E80ED22C4
:06000E00120D9F121430D8
:0D001400D2B212135BC2B2121364C2B32247
:0E143000C2B212135BD2B27F057E00021368B7
:0C0D93007F30120D9F7F30120D9F7F30CB
:020D9F00AD079E
:100DA1007C08C2B37F027E00121368ED30E704D2E3
:100DB100B28002C2B2ED25E0FD7F0312135DDCE2D9
:100DC100C2B37F047E00121368D2B27F0112135D99
:100DD100E4FD7CC820B2047D0180097FFA7E001207
:100DE1001368DCF0C2B37F037E00121368D2B2AF86
:010DF10005FC
:010DF20022DE
:100D2400A6077F01120D3808A6077F01120D3808A7
:040D3400A6077F018E
:020D3800AD0705
:100D3A00E4FCC2B37F04FE121368D2B27F017E00C4
:100D4A001213687B08D2B37F027E00121368EC2567
:100D5A00E030B2054401FC800354FEFC7F037E00B0
:100D6A00121368C2B3121364DBDBBD0104C2B28082
:100D7A0002D2B27F027E00121368121362C2B37FDC
:080D8A00037E00121368AF04A0
:010D9200223E
:05000300D2B2D2B322CD
:101256007850E6FBD394305006EBC3940850027BDB
:10126600191200147F44120D9F7F22120D9AAF03AC
:0C127600120D9F120D93120D9302143004
:1010E600E4F52AF52B1200147F44120D9F7F01129E
:1010F600000E7F45120D9F7F01120D38EF752B00F4
:10110600F52AE4FF120D38EF252BF52BE4352AF5E9
:081116002A121430AE2AAF2B9F
:01111E0022AE
:1011FA001200147F44120D9F7F0B12000E7F4512BE
:10120A000D9F7F01120D387851120D2408120D24FA
:0E121A0008A607E4FF120D3808A607021430DC
:101228001200147F44120D9F7FA812000E7F4512F2
:101238000D9F7F01120D38AA07E4FF120D38AD0784
:0D124800121430EA24A86D6002E4FAAF022F
:011255002276
:10128200120003E4F5291210E6BECB09BF72061262
:1012920012560211FA7F2C7E011213A00529E529AC
:0512A200C3940340E1CC
:0112A7002224
:1005ED0000C1814001C0804101C0804100C18140F6
:1005FD0001C0804100C1814000C1814001C08041E6
:10060D0001C0804100C1814000C1814001C08041D5
:10061D0000C1814001C0804101C0804100C18140C5
:10062D0001C0804100C1814000C1814001C08041B5
:10063D0000C1814001C0804101C0804100C18140A5
:10064D0000C1814001C0804101C0804100C1814095
:10065D0001C0804100C1814000C1814001C0804185
:10066D0001C0804100C1814000C1814001C0804175
:10067D0000C1814001C0804101C0804100C1814065
:10068D0000C1814001C0804101C0804100C1814055
:10069D0001C0804100C1814000C1814001C0804145
:1006AD0000C1814001C0804101C0804100C1814035
:1006BD0001C0804100C1814000C1814001C0804125
:1006CD0001C0804100C1814000C1814001C0804115
:1006DD0000C1814001C0804101C0804100C1814005
:1006ED0000C0C101C30302C2C60607C705C5C404C5
:1006FD00CC0C0DCD0FCFCE0E0ACACB0BC90908C835
:10070D00D81819D91BDBDA1A1EDEDF1FDD1D1CDC24
:10071D0014D4D515D71716D6D21213D311D1D01094
:10072D00F03031F133F3F23236F6F737F53534F484
:10073D003CFCFD3DFF3F3EFEFA3A3BFB39F9F838F4
:10074D0028E8E929EB2B2AEAEE2E2FEF2DEDEC2CE4
:10075D00E42425E527E7E62622E2E323E12120E054
:10076D00A06061A163A3A26266A6A767A56564A444
:10077D006CACAD6DAF6F6EAEAA6A6BAB69A9A868B4
:10078D0078B8B979BB7B7ABABE7E7FBF7DBDBC7CA4
:10079D00B47475B577B7B67672B2B373B17170B014
:1007AD005090915193535292965657975595945404
:1007BD009C5C5D9D5F9F9E5E5A9A9B5B9959589874
:1007CD00884849894B8B8A4A4E8E8F4F8D4D4C8C64
:1007DD0044848545874746868242438341818040D4
:0A0E52008B328A3389348C358D36DB
:100E5C007FFF7DFFE5361536AA35700215354A60E1
:100E6C0031AB320534E534AA337002053314F91270
:100E7C000BB66DFB7A0024EDF582EA3405F583E4BC
:100E8C00936FFD74ED2BF582EA3406F583E493FF42
:060E9C0080C2EFFEEDFF35
:010EA200222D
:1012A800000002000400060008000A000C000E00FE
:1012B80000000000000008FF0705010108300100D8
:0512C800050000031900
:1012CD00E4F5C275C78375C501AE02AF018E488FB7
:1012DD00498548C38549C475C65A75C6A5001214FB
:0312ED0066AFC227
:0112F00022DB
:10137C0075C78375C502AE02AF018E488F4985488B
:10138C00C38549C48DC275C65A75C6A500021466BC
:1013B80075C78375C5038E408F418540C38541C479
:0A13C80075C65A75C6A5000214662A
:0C146600E4F5C7F5C5F5C6F5C3F5C422D2
:06111F008B408A41894269
:10112500E4F547E547C395465028AB43AA44A9458E
:101135001212CDAB40AA41A942854782758300EFC3
:10114500120BFC74012545F545E43544F544054786
:0211550080D147
:011157002275
:061158008B408A41894230
:10115E00E4F547E547C395465028AB40AA41A9425E
:10116E00854782758300120BCFFDAB43AA44A94578
:10117E0012137C74012545F545E43544F5440547C5
:02118E0080D10E
:01119000223C
:07148A00E493FE740193FFDF
:041491001213B82258
:1007ED008F2AEFC3940740037FFF229012A8E49352
:1007FD00FE740193AA067543008A44F545754607B4
:10080D007B007A00792B12111F9012AAE493FE74CB
:10081D000193AA067543008A44F5457546077B008A
:10082D007A00793212111F9012ACE493FE74019389
:10083D00AA067543008A44F5457546077B007A0084
:10084D00793912111F7432252AF8E6FF742B252AE7
:10085D00F8E6FE6F70397439252AF8E66F602B744F
:10086D0039252AF8A6069012AC12148A9012ACE41F
:10087D0093FE740193AA067543008A44F5457546A7
:10088D00077B007A007939121158742B0209107404
:10089D0039252AF8E6FF742B252AF8E6FE6F702F0E
:1008AD007432252AF8A6069012AA12148A9012AA5A
:1008BD00E493FE740193AA067543008A44F54575C9
:1008CD0046077B007A007932121158742B803474EC
:1008DD0032252AF8E6FF742B252AF8A6079012A8D0
:1008ED0012148A9012A8E493FE740193AA0675431C
:1008FD00008A44F5457546077B007A00792B121165
:08090D00587432252AF8E6FFB8
:0109150022BF
:100FF600E4FFEF9012BF93FE744A2FF8E6D39E509B
:101006000FEF9012B893FE744A2FF8E6C39E500C69
:10101600EF9012C693FE744A2FF8A606744A2FF86C
:0C102600E6FE74592FF8A6060FBF07C69F
:01103200229B
:100EA300120FF6E4F530E53025E024A8F582E434AA
:100EB30012F58312148AE53025E024A8F582E43480
:100EC30012F583E493FE740193AA067543008A44E2
:100ED300F5457546077B007A00794A1211580530AB
:070EE300E530C3940340BF9A
:010EEA0022E5
:10133900E4F529AF291207ED744A2529F8A607050E
:1013490029E529C3940740EB784AE6700276010241
:021359000FF68D
:100A1E00E4F52AF52BE512B401127859E6784AF678
:100A2E00120EA3751003751202020B14E519D3945E
:100A3E00005003020B14E51C6003020B14E50E704C
:100A4E0037750E01786AE67864F67866E67860F6B1
:100A5E007868E67862F6E519B40219786BE618F64E
:100A6E007867E618F67869E618F67866E6F5097896
:100A7E0068E6F50A1519803BE50E64017035750EB2
:100A8E0002786AE67865F67866E67861F67868E662
:100A9E007863F6E519B40219786BE618F67867E60E
:100AAE0018F67869E618F67866E6F5097868E6F5D8
:100ABE000A1519E51A7011E519700D751102784BAA
:100ACE00E6F510E4F517803EE519D39400401E7547
:100ADE001C01784CE62401FFE433FE7C007D641299
:100AEE000C1EE48F248E23F522F5218019E51AD3EE
:100AFE0094004012751C017525017524007523356F
:090B0E0075220C752100E4F51FAD
:010B170022BB
:0B147200E4FF121228EF30E1027F01BE
:01147D00224C
:100FB500E520B401045313FE22E51B6033E4F51B61
:100FC5001214728F29E529700B5313FE5313FB532B
:100FD50013FD8019E529B40114E51320E009431335
:100FE5000185291F120A1E431301E4F515852916EB
:010FF50022D9
:100DF300EF14B407005051900E0875F003A4C58397
:100E030025F0C58373020E1D020E24020E2B020E63
:100E130032020E39020E40020E44D293D292C29491
:100E230022D294D292C29322D294D293C29222D249
:100E330092C294C29322D293C294C29222D2948039
:0F0E430002C294C293C29222D294D293D292222C
:1013E900E51330E00475080122E4F508F510FF1251
:0313F9000DF322CF
:10103300E51724FA601214601924027026E50C25C2
:10104300E0FDE50B33FC801FAE0BAF0C7C007D0590
:101053008008AE0BAF0C7C007D0A120C1EAC06ADF3
:0B106300078004AC0BAD0CAF05AE0421
:01106E00225F
:10106F00E51724FD601214601924027026E50C2583
:10107F00E0FDE50B33FC801FAE0BAF0C7C007D0554
:10108F008008AE0BAF0C7C007D0A120C1EAC06ADB7
:0B109F00078004AC0BAD0CAF05AE04E5
:0110AA002223
:100CB400E51330E01CE4FA784FE6C39408400CE5F1
:100CC4001004FB940840247B018020784FE6FB80CD
:100CD4001AE51CB40104E4FB8011E508B40108E43E
:100CE400F508F510FB8004AB10AA17EB7003FF8026
:100CF40005EA7005AF03020DF3E52745267020E5EC
:100D040018700DAF03120DF3751801121033800B18
:0F0D1400E4FF120DF3E4F51812106F8E268F27EF
:010D230022AD
:100F3100E4F50FF519F50EFF746A2FF8E4F67466FF
:100F41002FF8E4F674682FF8E4F674642FF8E4F6E9
:100F510074602FF8E4F674622FF8E4F60FBF02D83C
:100F6100E4F524F523F522F521F51CF525F51EF50B
:010F7100126D
:010F7200225C
:0D143E007F547E03EF1F70011EEF4E70F70C
:01144B00227E
:04139C007FF47E015B
:1013A000AD07AC06D3ED9400EC9400400A12143E55
:0813B000ED1D70F01C80ED2220
:1013D20075B10C75B20C75911C75921C5391FC433E
:0713E2009203E4FF020DF38A
:1013FC00E58954F04401F589758CF8758ACCD2A92D
:03140C00D28C225D
:03000B00020B18CD
:100B1800C0E0C0F0C083C082C0D075D000C000C0A3
:100B280001C002C003C004C005C006C007758CF828
:100B3800758ACC900033E0600D900066E0FF14F0F9
:100B4800EF7003A304F0AF140514EFC3941040062C
:100B5800751B01751400E4FFFEFDFCAB24AA23A954
:100B680022A821C3120C30601CAF24AE23AD22ACE6
:100B780021EF24FFF524EE34FFF523ED34FFF522B1
:100B8800EC34FFF521E52745266008E52715277091
:100B9800021526D007D006D005D004D003D002D045
:0E0BA80001D000D0D0D082D083D0F0D0E03287
:1012F100120F317F01120DF312139C7F02120DF3B5
:1013010012139C7F03120DF312139CE4FF120DF3D1
:04131100E4F51D22C0
:100C4100C2AF1213D27F2C7E011213A01213FC1219
:100C5100140F1212F1121339121282D2AF1213E9C8
:100C6100C291750B01750C2CE4F517F511F50853BC
:100C710013FE5313FB5313FDF520F51D120CB41293
:100C81000FB5900067E0B4010C121459E4900067AD
:100C9100F0900033F0E51CB401E2E4FFFEFDFCAB93
:100CA10024AA23A922A821C3120C3070CFF51CF568
:030CB1002580C9D2
:10037400E4F53490003DE0540FFD7C00A3E0F51A51
:10038400E51A7003ED6003751101E50F14600E1496
:10039400602524027023E4F519F50E801F150EE57F
:1003A4000EB401117865E618F67861E618F67863FC
:1003B400E618F6800780028000E4F50EEC60030284
:1003C400053AED24FE700302048004600302053A3A
:1003D400E51914605F1460072402600302053A9073
:1003E4000039E070077F0B74342F8011900039E0DE
:1003F4006401703090003FE0240CFF2434F582E463
:100404003400F583E0786AF674352FF582E434001D
:10041400F583E07866F674362FF582E43400F583CC
:10042400E07868F67866E6F5097868E6F50A7519FD
:100434000102053A900039E070077F0B74342F8075
:1004440011900039E06401703090003FE0240CFF0B
:100454002434F582E43400F583E0786BF674352FA8
:10046400F582E43400F583E07867F674362FF5827C
:10047400E43400F583E07869F6020537900039E04A
:1004840070337F0B74342FF582E43400F583E07805
:100494006AF674352FF582E43400F583E07866F665
:1004A40074362FF582E43400F583E07868F67F0E25
:1004B40074342F804D900039E06401706C90003FDB
:1004C400E0240CFF2434F582E43400F583E0786AF8
:1004D400F674352FF582E43400F583E07866F6741B
:1004E400362FF582E43400F583E07868F690003F17
:1004F400E0FE90003AE0C39E24F5FEEF24032EFFB5
:100504002434F582E43400F583E0786BF674352FF7
:10051400F582E43400F583E07867F674362FF582CB
:10052400E43400F583E07869F67866E6F5097868DE
:10053400E6F50A75190290003CE0C4135407F5105F
:10054400E4F508E013131354031460121460171431
:10055400601C2403701A750B00750C508018750B01
:1005640000750CA08010750B01750C40800880008C
:10057400750B02750C8090003CE05407F517E4F508
:0905840018F526F527E525605F56
:10058D00784CE62401FFE433FE7C007D64120C1EE2
:10059D008E358F36C3E49524F53374359523F532B6
:1005AD00740C9522F531E49521F530E4FDAB33AAB9
:1005BD0032A931A830C3120C30400CE4F525F524D6
:1005CD00F523F522F52122AE35C3E5369533F52415
:0F05DD00EE9532F523E49531F522E49530F521C2
:0105EC0022EC
:10091600E4F51E784AE6900001F0A37403F0E51DA5
:100926007024A3F07B017A0079017D03FC120E523C
:100936008E308F31900004EFF0E530A3F090000088
:100946007405F0020A0EE51D64036003020A0EE553
:100956000E702E9000037402F0A304F0E4A3F07B63
:10096600017A0079017D05FC120E528E308F31908E
:100976000006EFF0E530A3F09000007407F0020ADD
:100986000EE50E640170399000037404F0A314F0B0
:10099600A3E50EF07860E6A3F07862E6A3F07B01AB
:1009A6007A0079017D077C00120E528E308F3190CD
:1009B6000008EFF0E530A3F09000007409F08048DD
:1009C600E50E640270429000037406F0A37403F00F
:1009D600A3E50EF07860E6A3F07862E6A3F078610E
:1009E600E6A3F07863E6A3F07B017A0079017D093E
:1009F6007C00120E528E308F3190000AEFF0E530F7
:100A0600A3F0900000740BF07B017A00790190004E
:080A160000E0FD7C000211CAA2
:10119100784AE6900001F0A37403F0E4A3F07B0128
:1011A1007A0079017D03FC120E52AD07900004EF25
:1011B100F0AF06A3EEF09000007405F07B017A0019
:0911C1007901E0FD7C000211CA75
:101420007B017A007934900033E0FD7C000211CA20
:1010AB00784AE6900001F0A37490F0A3E50FF07B73
:1010BB00017A0079017D037C00120E52AD0790007E
:1010CB0004EFF0AF06A3EEF09000007405F07B0187
:0B10DB007A007901E0FD7C000211CAE0
:100F7300784AE6900001F0A37410F0E4A3F0A3F024
:100F8300A3F0A37405F07B017A0079017D067C0050
:100F9300120E52AD07900007EFF0AF06A3EEF090EC
:100FA30000007408F07B017A007901E0FD7C000207
:020FB30011CA61
:0D144C001213E9120F31E4784AF6020EA3E4
:10002600784AE6F529900034E060030201CAA3E0AD
:10003600640660030201CA900033E06408600302AC
:1000460001CA7B017A007934E024FEFDE434FFFC2A
:10005600120E528E2C8F2D900033E02432F582E45E
:100066003400F583E0752A00F52B900033E0243345
:10007600F582E43400F583E0FEE4252BF52BEE351E
:100086002AF52AE52D652B7004E52C652A60030206
:100096000373900037E0700302144C900037E0B40D
:1000A600011CE512640270030203737512019000CD
:1000B60039E07859F6E4F517751002F50822900034
:0600C60037E06410705BDE
:1000CC00A3E0FEA3E07C002400F52FEC3EF52E45CA
:1000DC002F6044E52FB41109E52EB42704784B802A
:1000EC0030E52F64127004E52E6427602AE52F6436
:1000FC00137004E52E6427601EE52F64147004E56C
:10010C002E64276012E52FB4150DE52EB427087860
:0A011C004FE6F510E4F508E4F517CE
:1001260022900037E0B411061213E9020F31900055
:1001360037E0B42010E4F517900039E0784BF6E686
:10014600F510E48052900037E0B42108900039E0C1
:10015600784C801C900037E0B42208900039E07893
:100166004D800D900037E0B42319900039E0784EA9
:10017600F6751002E4F508751701F518F50B750C00
:10018600648016900037E0B42412900039E0784F6E
:10019600F6E6F510E4F517F508020EA3900037E031
:1001A60064A06003020373900039E07850F675107E
:1001B60002E4F508751701F518F50B750C64120EB7
:1001C600A3021256900034E0652960030203737B94
:1001D600017A007934900033E024FEFDE434FFFC1C
:1001E600120E528E2C8F2D900033E02432F582E4CD
:1001F6003400F583E0752A00F52B900033E02433B4
:10020600F582E43400F583E0FEE4252BF52BEE358C
:100216002AF52AE52D652B7004E52C652A60030274
:100226000373900035E024FA603124F6700302026D
:10023600F8240D6003020373900038E07008A3E011
:10024600B40103021191900038E06003020373A326
:10025600E064036003020373020916900033E0644E
:10026600086003020373121420900037E0700280C6
:100276000C900037E064016004E0B4020A1213E94E
:10028600120F31E4F51D22900037E0B420189000DB
:1002960039E07003F52022900039E0640160030222
:1002A600037375200122900037E064306003020377
:1002B60073900039E064016003020373E50EB40134
:1002C60006E51964016010E50E640260030203731B
:1002D600E5196003020373150EE50E64016003025F
:1002E60003737865E618F67861E618F67863E6181B
:1002F600F62290003BE0701290003AE0B40A0B122E
:100306000F731213E9120F31805D900039E0700B04
:10031600A3E0B40A06A3E06403602C900039E0640D
:10032600017044900033E024F7FF90003AE06F70CC
:1003360036A3E06403703090003FE0FF90003AE09F
:10034600C39FC39408402090003DE0FFC4540FF5BE
:100356000FE51DB40308E51EB401030210AB120F2E
:0D03660073120374751E0190003BE0F51D3D
:010373002267
:0D145900900033E0C39406400312002622E9
:101315007598D053877F75A240538EEF438E015346
:101325008EF7438E0475D6FF75D7B853AFFB438E42
:0413350010D2AC2204
:10140F00121315E4900033F0900067F0900066F02F
:01141F0022AA
:03002300020EEBDF
:100EEB00C0E0C083C082C0D075D000C00730982B43
:100EFB00C298900033E0C394325020900067E070AA
:100F0B001A900033E0FF04F074342FF582E43400C0
:100F1B00F583E599F09000667402F0D007D0D0D03D
:060F2B0082D083D0E03209
:1011CA00D291D3ED9400EC94004022120BB6FF208A
:1011DA00D004C29B8002D29B8F993099FDC2997428
:1011EA000129F9E43AFAED1D70D81C80D5C2912282
:0300000002147E69
:0C147E00787FE4F6D8FD75816B020C410C
:100BB600BB010689828A83E0225002E722BBFE023D
:090BC600E32289828A83E4932270
:100BCF00BB010CE58229F582E5833AF583E02250DB
:100BDF0006E92582F8E622BBFE06E92582F8E22225
:0D0BEF00E58229F582E5833AF583E493223F
:100BFC00F8BB010DE58229F582E5833AF583E8F02F
:100C0C00225006E92582C8F622BBFE05E92582C8DA
:020C1C00F222C2
:100C1E00EF8DF0A4A8F0CF8CF0A428CE8DF0A42EEA
:020C2E00FE22A4
:100C3000EB9FF5F0EA9E42F0E99D42F0E89C45F01A
:010C40002291
:00000001FF
