:1005CC0000C1814001C0804101C0804100C1814017
:1005DC0001C0804100C1814000C1814001C0804107
:1005EC0001C0804100C1814000C1814001C08041F7
:1005FC0000C1814001C0804101C0804100C18140E7
:10060C0001C0804100C1814000C1814001C08041D6
:10061C0000C1814001C0804101C0804100C18140C6
:10062C0000C1814001C0804101C0804100C18140B6
:10063C0001C0804100C1814000C1814001C08041A6
:10064C0001C0804100C1814000C1814001C0804196
:10065C0000C1814001C0804101C0804100C1814086
:10066C0000C1814001C0804101C0804100C1814076
:10067C0001C0804100C1814000C1814001C0804166
:10068C0000C1814001C0804101C0804100C1814056
:10069C0001C0804100C1814000C1814001C0804146
:1006AC0001C0804100C1814000C1814001C0804136
:1006BC0000C1814001C0804101C0804100C1814026
:1006CC0000C0C101C30302C2C60607C705C5C404E6
:1006DC00CC0C0DCD0FCFCE0E0ACACB0BC90908C856
:1006EC00D81819D91BDBDA1A1EDEDF1FDD1D1CDC46
:1006FC0014D4D515D71716D6D21213D311D1D010B6
:10070C00F03031F133F3F23236F6F737F53534F4A5
:10071C003CFCFD3DFF3F3EFEFA3A3BFB39F9F83815
:10072C0028E8E929EB2B2AEAEE2E2FEF2DEDEC2C05
:10073C00E42425E527E7E62622E2E323E12120E075
:10074C00A06061A163A3A26266A6A767A56564A465
:10075C006CACAD6DAF6F6EAEAA6A6BAB69A9A868D5
:10076C0078B8B979BB7B7ABABE7E7FBF7DBDBC7CC5
:10077C00B47475B577B7B67672B2B373B17170B035
:10078C005090915193535292965657975595945425
:10079C009C5C5D9D5F9F9E5E5A9A9B5B9959589895
:1007AC00884849894B8B8A4A4E8E8F4F8D4D4C8C85
:1007BC0044848545874746868242438341818040F5
:0A0D5F008B328A3389348C358D36CF
:100D69007FFF7DFFE5361536AA35700215354A60D5
:100D790031AB320534E534AA337002053314F91264
:100D89000B956DFB7A0024CCF582EA3405F583E4F2
:100D9900936FFD74CC2BF582EA3406F583E493FF57
:060DA90080C2EFFEEDFF29
:010DAF002221
:1010D700000002000400060008000A000C000E00D1
:1010E70000000000000008FF0705010108300100AB
:0510F7000500000319D3
:1010FC00E4F5C275C78375C501AE02AF018E488F8A
:10110C00498548C38549C475C65A75C6A5001212CF
:03111C0066AFC2F9
:01111F0022AD
:10118A0075C78375C502AE02AF018E488F4985487F
:10119A00C38549C48DC275C65A75C6A500021266B2
:1011C60075C78375C5038E408F418540C38541C46D
:0A11D60075C65A75C6A50002126620
:0C126600E4F5C7F5C5F5C6F5C3F5C422D4
:060FFC008B408A4189428E
:10100200E4F547E547C395465028AB43AA44A945B2
:101012001210FCAB40AA41A942854782758300EFBA
:10102200120BDB74012545F545E43544F5440547CB
:0210320080D16B
:011034002299
:061035008B408A41894254
:10103B00E4F547E547C395465028AB40AA41A94282
:10104B00854782758300120BAEFDAB43AA44A945BD
:10105B0012118A74012545F545E43544F5440547DD
:02106B0080D132
:01106D002260
:07127E00E493FE740193FFED
:041285001211C6225A
:1007CC008F2AEFC3940740037FFF229010D7E49346
:1007DC00FE740193AA067543008A44F545754607D5
:1007EC007B007A00792B120FFC9010D9E493FE74E5
:1007FC000193AA067543008A44F5457546077B00AC
:10080C007A007932120FFC9010DBE493FE740193A2
:10081C00AA067543008A44F5457546077B007A00A5
:10082C007939120FFC7432252AF8E6FF742B252A2D
:10083C00F8E6FE6F70397439252AF8E66F602B7470
:10084C0039252AF8A6069010DB12127E9010DBE4F4
:10085C0093FE740193AA067543008A44F5457546C8
:10086C00077B007A007939121035742B0208EF746B
:10087C0039252AF8E6FF742B252AF8E6FE6F702F2F
:10088C007432252AF8A6069010D912127E9010D92F
:10089C00E493FE740193AA067543008A44F54575EA
:1008AC0046077B007A007932121035742B80347431
:1008BC0032252AF8E6FF742B252AF8A6079010D7C4
:1008CC0012127E9010D7E493FE740193AA0675431E
:1008DC00008A44F5457546077B007A00792B121087
:0808EC00357432252AF8E6FFFD
:0108F40022E1
:100F0C00E4FFEF9010EE93FE744A2FF8E6D39E5058
:100F1C000FEF9010E793FE744A2FF8E6C39E500C27
:100F2C00EF9010F593FE744A2FF8A606744A2FF82A
:0C0F3C00E6FE74592FF8A6060FBF07C68A
:010F48002286
:100DFA00120F0CE4F530E53025E024D7F582E4340F
:100E0A0010F58312127EE53025E024D7F582E4340A
:100E1A0010F583E493FE740193AA067543008A448D
:100E2A00F5457546077B007A00794A121035053078
:070E3A00E530C3940340BF43
:010E4100228E
:10116800E4F529AF291207CC744A2529F8A6070502
:1011780029E529C3940740EB784AE6700276010214
:021188000F0C4A
:1009FD00E4F52AF52BE512B401127859E6784AF69A
:100A0D00120DFA751003751202020AF3E519D3944B
:100A1D00005003020AF3E51C6003020AF3E50E70B1
:100A2D0037750E01786AE67864F67866E67860F6D2
:100A3D007868E67862F6E519B40219786BE618F66F
:100A4D007867E618F67869E618F67866E6F50978B7
:100A5D0068E6F50A1519803BE50E64017035750ED3
:100A6D0002786AE67865F67866E67861F67868E683
:100A7D007863F6E519B40219786BE618F67867E62F
:100A8D0018F67869E618F67866E6F5097868E6F5F9
:100A9D000A1519E51A7011E519700D751102784BCB
:100AAD00E6F510E4F517803EE519D39400401E7568
:100ABD001C01784CE62401FFE433FE7C007D6412BA
:100ACD000BFDE48F248E23F522F5218019E51AD331
:100ADD0094004012751C0175250175240075233590
:090AED0075220C752100E4F51FCF
:010AF60022DD
:10000E00E4D29500000000A29533FFBF0104E4FF87
:04001E0080027F01DC
:0100220022BB
:100DB000E520B401045313FE22E51B603CE4F51B5F
:100DC00012000E8F29E52965166003852916E5298D
:100DD000700B5313FE5313FB5313FD8019E529B415
:100DE0000114E51320E00943130185291F1209FDB1
:090DF000431301E4F515852916F1
:010DF90022D7
:100D0000EF14B407005051900D1575F003A4C5837E
:100D100025F0C58373020D2A020D31020D38020D34
:100D20003F020D46020D4D020D51D293D292C29454
:100D300022D294D292C29322D294D293C29222D23D
:100D400092C294C29322D293C294C29222D294802D
:0F0D500002C294C293C29222D294D293D2922220
:1011F700E51330E00475080122E4F508F510FF1245
:031207000D0022B5
:100F4900E51724FA601214601924027026E50C25AD
:100F5900E0FDE50B33FC801FAE0BAF0C7C007D057B
:100F69008008AE0BAF0C7C007D0A120BFDAC06AD00
:0B0F7900078004AC0BAD0CAF05AE040C
:010F8400224A
:100F8500E51724FD601214601924027026E50C256E
:100F9500E0FDE50B33FC801FAE0BAF0C7C007D053F
:100FA5008008AE0BAF0C7C007D0A120BFDAC06ADC4
:0B0FB500078004AC0BAD0CAF05AE04D0
:010FC000220E
:100C2000E51330E01CE4FA784FE6C39408400CE585
:100C30001004FB940840247B018020784FE6FB8061
:100C40001AE51CB40104E4FB8011E508B40108E4D2
:100C5000F508F510FB8004AB10AA17EB7003FF80BA
:100C600005EA7005AF03020D00E52745267020E573
:100C700018700DAF03120D00751801120F49800B8B
:0F0C8000E4FF120D00E4F518120F858E268F2762
:010C8F002242
:100E8800E4F50FF519F50EFF746A2FF8E4F67466A9
:100E98002FF8E4F674682FF8E4F674642FF8E4F693
:100EA80074602FF8E4F674622FF8E4F60FBF02D8E6
:100EB800E4F524F523F522F521F51CF525F51EF5B5
:010EC8001217
:010EC9002206
:0D123E007F547E03EF1F70011EEF4E70F70E
:01124B002280
:0411AA007FF47E014F
:1011AE00AD07AC06D3ED9400EC9400400A12123E4B
:0811BE00ED1D70F01C80ED2214
:1011E00075B10C75B20C75911C75921C5391FC4332
:0711F0009203E4FF020D0071
:10120A00E58954F04401F589758CF8758ACCD2A920
:03121A00D28C2251
:03000B00020AF7EF
:100AF700C0E0C0F0C083C082C0D075D000C000C0C5
:100B070001C002C003C004C005C006C007758CF849
:100B1700758ACC900033E0600D900066E0FF14F01A
:100B2700EF7003A304F0AF140514EFC3941040064D
:100B3700751B01751400E4FFFEFDFCAB24AA23A975
:100B470022A821C3120C0F601CAF24AE23AD22AC28
:100B570021EF24FFF524EE34FFF523ED34FFF522D2
:100B6700EC34FFF521E52745266008E527152770B2
:100B7700021526D007D006D005D004D003D002D066
:0E0B870001D000D0D0D082D083D0F0D0E032A8
:10112000120E887F01120D001211AA7F02120D000B
:101130001211AA7F03120D001211AAE4FF120D0072
:04114000E4F51D2293
:100C9000C2AF1211E07F2C7E011211AE12120A12A5
:100CA000121D121120121168D2AF1211F7C29175E4
:100CB0000B01750C2CE4F517F511F5085313FE53D1
:100CC00013FB5313FDF520F51D120C20120DB090EF
:100CD0000067E0B4010C121259E4900067F0900034
:100CE00033F0E51CB401E2E4FFFEFDFCAB24AA23D3
:100CF000A922A821C3120C0F70CFF51CF52580C9BD
:10035300E4F53490003DE0540FFD7C00A3E0F51A72
:10036300E51A7003ED6003751101E50F14600E14B7
:10037300602524027023E4F519F50E801F150EE5A0
:100383000EB401117865E618F67861E618F678631D
:10039300E618F6800780028000E4F50EEC600302A5
:1003A3000519ED24FE700302045F046003020519BE
:1003B300E51914605F1460072402600302051990B5
:1003C3000039E070077F0B74342F8011900039E0FF
:1003D3006401703090003FE0240CFF2434F582E484
:1003E3003400F583E0786AF674352FF582E434003F
:1003F300F583E07866F674362FF582E43400F583EE
:10040300E07868F67866E6F5097868E6F50A75191E
:1004130001020519900039E070077F0B74342F80B7
:1004230011900039E06401703090003FE0240CFF2C
:100433002434F582E43400F583E0786BF674352FC9
:10044300F582E43400F583E07867F674362FF5829D
:10045300E43400F583E07869F6020516900039E08C
:1004630070337F0B74342FF582E43400F583E07826
:100473006AF674352FF582E43400F583E07866F686
:1004830074362FF582E43400F583E07868F67F0E46
:1004930074342F804D900039E06401706C90003FFC
:1004A300E0240CFF2434F582E43400F583E0786A19
:1004B300F674352FF582E43400F583E07866F6743C
:1004C300362FF582E43400F583E07868F690003F38
:1004D300E0FE90003AE0C39E24F5FEEF24032EFFD6
:1004E3002434F582E43400F583E0786BF674352F19
:1004F300F582E43400F583E07867F674362FF582ED
:10050300E43400F583E07869F67866E6F5097868FF
:10051300E6F50A75190290003CE0C4135407F51080
:10052300E4F508E013131354031460121460171452
:10053300601C2403701A750B00750C508018750B22
:1005430000750CA08010750B01750C4080088000AD
:10055300750B02750C8090003CE05407F517E4F529
:0905630018F526F527E525605F77
:10056C00784CE62401FFE433FE7C007D64120BFD25
:10057C008E358F36C3E49524F53374359523F532D7
:10058C00740C9522F531E49521F530E4FDAB33AADA
:10059C0032A931A830C3120C0F400CE4F525F52418
:1005AC00F523F522F52122AE35C3E5369533F52436
:0F05BC00EE9532F523E49531F522E49530F521E3
:0105CB00220D
:1008F500E4F51E784AE6900001F0A37403F0E51DC7
:100905007024A3F07B017A0079017D03FC120D5F51
:100915008E308F31900004EFF0E530A3F0900000A9
:100925007405F00209EDE51D640360030209EDE5B8
:100935000E702E9000037402F0A304F0E4A3F07B84
:10094500017A0079017D05FC120D5F8E308F3190A3
:100955000006EFF0E530A3F09000007407F00209FF
:10096500EDE50E640170399000037404F0A314F0F2
:10097500A3E50EF07860E6A3F07862E6A3F07B01CC
:100985007A0079017D077C00120D5F8E308F3190E2
:100995000008EFF0E530A3F09000007409F08048FE
:1009A500E50E640270429000037406F0A37403F030
:1009B500A3E50EF07860E6A3F07862E6A3F078612F
:1009C500E6A3F07863E6A3F07B017A0079017D095F
:1009D5007C00120D5F8E308F3190000AEFF0E5300C
:1009E500A3F0900000740BF07B017A007901900070
:0809F50000E0FD7C000210A7E8
:10106E00784AE6900001F0A37403F0E4A3F07B014C
:10107E007A0079017D03FC120D5FAD07900004EF3D
:10108E00F0AF06A3EEF09000007405F07B017A003D
:09109E007901E0FD7C000210A7BD
:10122E007B017A007934900033E0FD7C000210A738
:100FC100784AE6900001F0A37490F0A3E50FF07B5E
:100FD100017A0079017D037C00120D5FAD0790005D
:100FE10004EFF0AF06A3EEF09000007405F07B0172
:0B0FF1007A007901E0FD7C000210A7EF
:100ECA00784AE6900001F0A37410F0E4A3F0A3F0CE
:100EDA00A3F0A37405F07B017A0079017D067C00FA
:100EEA00120D5FAD07900007EFF0AF06A3EEF0908A
:100EFA0000007408F07B017A007901E0FD7C0002B1
:020F0A0010A72E
:0D124C001211F7120E88E4784AF6020DFA2E
:10002600784AE6F529900034E060030201A9A3E0CE
:10003600640660030201A9900033E06408600302CD
:1000460001A97B017A007934E024FEFDE434FFFC4B
:10005600120D5F8E2C8F2D900033E02432F582E452
:100066003400F583E0752A00F52B900033E0243345
:10007600F582E43400F583E0FEE4252BF52BEE351E
:100086002AF52AE52D652B7004E52C652A60030206
:100096000352900037E0700302124C900037E0B430
:1000A600011CE512640270030203527512019000EE
:1000B60039E07859F6E4F517751002F50822900034
:0600C60037E06410705BDE
:1000CC00A3E0FEA3E07C002400F52FEC3EF52E45CA
:1000DC002F6044E52FB41109E52EB42704784B802A
:1000EC0030E52F64127004E52E6427602AE52F6436
:1000FC00137004E52E6427601EE52F64147004E56C
:10010C002E64276012E52FB4150DE52EB427087860
:0A011C004FE6F510E4F508E4F517CE
:1001260022900037E0B411061211F7020E889000F3
:1001360037E0B42010E4F517900039E0784BF6E686
:10014600F510E48052900037E0B42108900039E0C1
:10015600784C801C900037E0B42208900039E07893
:100166004D800D900037E0B42319900039E0784EA9
:10017600F6751002E4F508751701F518F50B750C00
:10018600648016900037E0B42412900039E0784F6E
:10019600F6E6F510E4F517F508020DFA900037E0DB
:1001A60064A022900034E0652960030203527B01BB
:1001B6007A007934900033E024FEFDE434FFFC122B
:1001C6000D5F8E2C8F2D900033E02432F582E434BF
:1001D60000F583E0752A00F52B900033E02433F513
:1001E60082E43400F583E0FEE4252BF52BEE352A78
:1001F600F52AE52D652B7004E52C652A60030203BC
:1002060052900035E024FA603124F670030202D7DA
:10021600240D6003020352900038E07008A3E0B496
:10022600010302106E900038E06003020352A3E05F
:10023600640360030203520208F5900033E0640889
:10024600600302035212122E900037E07002800CF7
:10025600900037E064016004E0B4020A1211F7125C
:100266000E88E4F51D22900037E0B420189000397E
:10027600E07003F52022900039E064016003020378
:100286005275200122900037E06430600302035269
:10029600900039E064016003020352E50EB40106E2
:1002A600E51964016010E50E64026003020352E57D
:1002B600196003020352150EE50E64016003020382
:1002C600527865E618F67861E618F67863E618F669
:1002D6002290003BE0701290003AE0B40A0B120E36
:1002E600CA1211F7120E88805D900039E0700BA3D8
:1002F600E0B40A06A3E06403602C900039E06401D0
:100306007044900033E024F7FF90003AE06F7036B7
:10031600A3E06403703090003FE0FF90003AE0C332
:100326009FC39408402090003DE0FFC4540FF50F92
:10033600E51DB40308E51EB40103020FC1120ECA7F
:0C034600120353751E0190003BE0F51DF2
:010352002288
:0D125900900033E0C39406400312002622EB
:101144007598D053877F75A240538EEF438E015319
:101154008EF7438E0475D6FF75D7B853AFFB438E15
:0411640010D2AC22D7
:10121D00121144E4900033F0900067F0900066F0F6
:01122D00229E
:03002300020E4288
:100E4200C0E0C083C082C0D075D000C00730982BEC
:100E5200C298900033E0C394325020900067E07053
:100E62001A900033E0FF04F074342FF582E434006A
:100E7200F583E599F09000667402F0D007D0D0D0E7
:060E820082D083D0E032B3
:1010A700D291D3ED9400EC94004022120B95FF20CF
:1010B700D004C29B8002D29B8F993099FDC299744C
:1010C7000129F9E43AFAED1D70D81C80D5C29122A6
:0300000002127277
:0C127200787FE4F6D8FD75816B020C90CB
:100B9500BB010689828A83E0225002E722BBFE025E
:090BA500E32289828A83E4932291
:100BAE00BB010CE58229F582E5833AF583E02250FC
:100BBE0006E92582F8E622BBFE06E92582F8E22246
:0D0BCE00E58229F582E5833AF583E4932260
:100BDB00F8BB010DE58229F582E5833AF583E8F050
:100BEB00225006E92582C8F622BBFE05E92582C8FC
:020BFB00F222E4
:100BFD00EF8DF0A4A8F0CF8CF0A428CE8DF0A42E0C
:020C0D00FE22C5
:100C0F00EB9FF5F0EA9E42F0E99D42F0E89C45F03B
:010C1F0022B2
:00000001FF
