:03000000020CB23D
:0C0CB200787FE4F6D8FD7581C2020CF9D1
:0D13E70075BB8175BC0975D10A75E88022BF
:10138100C2EDD2ECE4FF7E3230ED08C2EDC2ECAF2B
:05139100BE8002DEF346
:011396002234
:10079700E4F522C2830521121381EF2541F541E4D7
:1007A7003540F540E4F5210521E521B40FF9C28371
:1007B7007F017E001213520522E522C3943240D3F3
:1007C700AE40AF417C007D32120A718E408F41C32B
:1007D700E5419473E5409400500EE541943CE540B3
:1007E7009400400475440822E4F544751401F508A3
:0207F700F50902
:0107F90022DD
:081432007F087E72DEFEDFFC84
:01143A00228F
:10135200AD07AC06D3ED9400EC9400400A121432AF
:08136200ED1D70F01C80ED226E
:0313BB0001A60088
:1010840030012CE544B40827C201AE42EED39541A9
:10109400E495404017AE42EE9541FDE49540FCD303
:1010A400ED943CEC9400400405438003E4F543E5EF
:0F10B40043D3942840077543297F018002E4FF4E
:0110C300220A
:10100000E545B40104531BFE2278A4E660331210B8
:10101000848F21E521700DE51B531BFE531BFB53F1
:101020001BFD801AE521B40115E51B20E00A431BD6
:101030000178A6A621120800431B01E4F51D8521B5
:011040001E91
:01104100228C
:10080000E4F522F52378A2E6B4011278A7E6789BF6
:10081000F6121144750E0378A2760201F878B4E658
:10082000D39400500201F878A5E6600201F878B18F
:10083000E67037760178C1E678BBF678BDE678B722
:10084000F678BFE678B9F678B4E6B4021B78C2E66B
:1008500018F678BEE618F678C0E618F678BDE678A1
:10086000AFF678BFE678B0F6803C78B1E664017008
:1008700038760278C1E678BCF678BDE678B8F678C6
:10088000BFE678BAF678B4E6B4021B78C2E618F68A
:1008900078BEE618F678C0E618F678BDE678AFF6CA
:1008A00078BFE678B0F678B41678B5E6701378B409
:1008B000E6700E78B37602789CE6F50EE4F51180CA
:1008C0003778B4E6D39400401A78A57601789DE68F
:1008D0002401FFE433FE7C007D64120A5F8E168FD4
:1008E00017801578B5E6D39400400D78A57601758C
:0C08F0001801751635751700E478A6F69F
:0108FC0022D9
:0713BE00010D00020F000009
:1012B900C2867FE87E03121352D286C2807FE87EFF
:1012C90003121352D280C2877FE87E03121352D2CF
:0212D900802271
:100FE100E514B4010812143BE4F514800AE5147009
:0E0FF1000C12144275140175084E7509202269
:07143B00C286D287D2802295
:07144200D286D287D280227E
:1012FD0053F1FD43F11043A40C53A43E43E14F437E
:0D130D00E20343E340E4FF120E14C283220A
:100E1400EF14B407005046900E2525E050020583D8
:100E240073C133C13AC141C148C14FC156C15AD23D
:100E340080D287C28622D286D287C28022D286D22C
:100E440080C28722D287C286C28022D280C286C252
:100E54008722D2868002C286C280C28722D286D2EC
:040E640080D287228F
:100D3E00E51B30E020E4F52278A0E6C39408400ECF
:100D4E00E50E04F5219408402D752101802878A028
:100D5E00E6F521802178A5E6B40105E4F52180169B
:100D6E00789AE6B4010AE4F515F521F50EF680063B
:100D7E00850E21851122E5217003FF8006E5227084
:100D8E0005AF21020E14E51A45197020E512700DFB
:100D9E00AF21120E14751201120EB9800BE4FF1260
:0C0DAE000E14E4F512120F068E198F1AB5
:010DBA002216
:100EB900AF0BAE0AE51114B407005040900ECF25D0
:100EC900E05002058373C1DFC1DFC1DFC1DFC1E5C6
:100ED900C1F0C1FA8000AE0AAF0B8020E50B25E016
:100EE900FFE50A33FE8015AE0AAF0B7C007D058055
:0C0EF90008AE0AAF0B7C007D0A120A5FF5
:010F050022C9
:100F0600AF0BAE0AE51114B407005040900F1C2534
:100F1600E05002058373E12CE132E13DE147E12C2B
:100F2600E12CE12C8000AE0AAF0B8020E50B25E01A
:100F3600FFE50A33FE8015AE0AAF0B7C007D058007
:0C0F460008AE0AAF0B7C007D0A120A5FA7
:010F5200227C
:0413C500C101C100A1
:0C13F40075B2067FF4DFFEE5B230E4FBCA
:0114000022C9
:100B8B0053D9BF43EF02C2AFC2AF1212FD7F647ED7
:100B9B00001213521213F412139712000E121401B7
:100BAB001213E71207971212DB1212B9120F9D12D2
:100BBB00136AE4F51FC282750A03750BE8F5117809
:100BCB00B3F6789AF6531BFE531BFB531BFD78A40D
:100BDB007601F545F51FF513789CF612002675EC9A
:100BEB0001E54464086009E50945087003120FE14B
:100BFB00121000120D3E7899E6B4010A12141BE490
:100C0B007899F6786FF678A5E6B40109E5174516DD
:0A0C1B007003F6F51875EC0180C4B3
:10139700D28CD2A9758CF7758902438E01C2AFC270
:0213A700AF2273
:0E13D900D28EC2AB438920538EEF758DD82281
:03000B00020C25BF
:100C2500C0E0C0F0C083C082C0D075D000C000C095
:100C350001C002C003C004C005C006C007053FE5EA
:100C45003F7002053ED3E5109400E50F940040087F
:100C5500E51015107002150FD3E5099400E5089409
:100C6500004008E509150970021508D3E53F94050C
:100C7500E53E9400400CD283753E00753F00D200DE
:100C850080103000091213818F42D201C283C283C2
:100C9500C200D007D006D005D004D003D002D001C1
:0D0CA500D000D0D0D082D083D0F0D0E0328B
:10000E00D2CAC2C875CA5875CBF885CACC85CBCDB5
:05001E00D2ADD2BD22AD
:03002B000210427E
:10104200C0E0C0D075D000C000E51745166008E5C5
:1010520017151770021516E51A45196008E51A15D5
:101062001A70021519786FE6600D7898E61670030B
:10107200087601C28C8002D28CC2CFD000D0D0D0F0
:02108200E0325A
:03002600D2AF2234
:0B1427001213D9439890D2ACD2BC2223
:0300230002126660
:10126600C0E0C0D075D000C00030981CC298786F1E
:10127600E6C3942850127899E6700D786FE6062436
:0F12860070F8A69978987602D000D0D0D0E032D8
:080003008F993099FDC299228A
:0D140100121427E4786FF67899F618F62299
:0A0F53008B2B8A2C892D8C2E8D2FFC
:100F5D00D2827F017E00121352E4F530C3E5309545
:100F6D002FE4952E5020AB2BAA2CA92D8530827500
:100F7D008300120A10FF20D004C29B8002D29B1264
:0F0F8D000003053080D67F017E00121352C2820E
:010F9C002232
:10133700160018001A0000000000000008FF07054B
:0B13470001010830010005000003193F
:10131A00A2AF9202C2AF8F828E83438F0175B7A5A7
:0C132A0075B7F1EDF0538FFEA20292AFF8
:011336002294
:1013A900A2AF9202C2AF8F828E83E493FFA2029210
:0113B900AF84
:0113BA002210
:07129500E493FE740193FFD6
:10129C00A2AF9202C2AF8F828E83438F0375B7A524
:0C12AC0075B7F1E4F0538FFCA20292AF82
:0112B8002213
:0C10C4007B00E493FC740193FD753D0774
:0A10D0008B388A39893A8C3B8D3C3D
:1010DA00E4FCECC3953D5021AB38AA39A93A8C827D
:1010EA00758300120A10FDAF3CAE3B12131A053C81
:0910FA00E53C7002053B0C80D9B5
:0111030022C9
:0C1104007B00E493FC740193FD753D0733
:0A1110008B388A39893A8C3B8D3CFC
:10111A00E4FDEDC3953D5021AF3CAE3B1213A9ABA4
:10112A0038AA39A93A8D82758300EF120A3D053C27
:09113A00E53C7002053B0D80D973
:011143002289
:10114400121184E4F529E52925E02437F582E434F5
:1011540013F583121295E52925E02437F582E4344A
:1011640013F583E493FC740193FD7B007A00799B6F
:0F117400753D071210D00529E529C3940340C724
:011183002249
:10118400E4FFEF90134493FE749B2FF8E6D39E5034
:101194000FEF90133D93FE749B2FF8E6C39E500C03
:1011A400EF90134B93FE749B2FF8A606749B2FF8B5
:0C11B400E6FE74A72FF8A6060FBF07C6C2
:0111C000220C
:1012DB00E4F521AF21120AD7749B2521F8A6070547
:1012EB0021E521C3940740EB789BE670027601025F
:0212FB0011845C
:100AD7008F22EFC3940740037FFF227A0079239088
:100AE70013371211047A00792A9013391211047BF3
:100AF700007A00793190133B121106742A2522F8E7
:100B0700E6FF74232522F8E6FE6F70247431252250
:100B1700F8E66F601774312522F8A60690133B128A
:100B270012957A00793190133B1210C47423804ECA
:100B370074312522F8E6FF74232522F8E6FE6F704C
:100B47001B742A2522F8A6069013391212957A00EB
:100B5700792A9013391210C474238022742A25220B
:100B6700F8E6FF74232522F8A6079013371212958B
:100B77007B007A0079239013371210C6742A252236
:030B8700F8E6FF8E
:010B8A002248
:0C141B00786FE6C39406400312002E22F6
:10002E00789BE6F521E4F5267870E66002219C08BF
:10003E00E664066002219C786FE664086002219CEB
:10004E00FB7A007970E624FEFDE434FFFC120E68A4
:10005E008E248F25786FE6246EF8E6752200F52340
:10006E00786FE6246FF8E6FEE42523F523EE3522BD
:10007E00F522E52565237004E52465226002618082
:10008E007873E6700302140E7873E6B4011B78A23F
:10009E00E664027002618076017875E678A7F6E470
:1000AE00F511750E02789AF6227873E66410705C7C
:1000BE0008E6FE08E67C002400F528EC3EF5274510
:1000CE00286045E528B41109E527B42704789C80FB
:1000DE0030E52864127004E5276427602BE5286458
:1000EE00137004E5276427601FE52864147004E587
:1000FE002764276013E528B4150EE527B427097881
:0B010E00A0E6F50EE4789AF6E4F51187
:10011900227873E6B4110612136A020F9D7873E60A
:10012900B4200FE4F5117875E6789CF6E6F50EE44F
:1001390080397873E6B421077875E6789D803F7831
:1001490073E6B422077875E6789E80327873E6B450
:1001590023077875E6789F80257873E6B4241178AB
:1001690075E678A0F6E6F50EE4F511789AF68020A2
:100179007873E664A0600261807875E678A1F67507
:100189000E02E4789AF6751101F512F50A750B64F9
:100199000211447870E665216002610CFB7A0079EE
:1001A9007018E624FEFDE434FFFC120E688E248FDD
:1001B90025786FE6246EF8E6752200F523786FE658
:1001C900246FF8E6FEE42523F523EE3522F522E532
:1001D9002565237004E5246522600261807871E653
:1001E90024FA602B24F67002419C240D6002618080
:1001F9007874E6700808E6B401030212337874E6ED
:100209006002618008E66403600261800208FD788B
:100219006FE66408600261801213CA7873E670029F
:1002290061417873E664016004E6B40202614178D1
:1002390073E6B420157875E67003F545227875E6FE
:10024900640160026180754501227873E66430605B
:100259000261807875E664016002618078B1E6B474
:10026900010778B4E66401601078B1E664026002BF
:10027900618078B4E66002618078B116E664016055
:1002890002618078BCE618F678B8E618F678BAE61E
:1002990018F6227877E6701018E6B40A0B1211C125
:1002A90012136A120F9D80557875E6700B08E6B433
:1002B9000A0608E6640360237875E66401703E78EF
:1002C9006FE624F7787666703408E66403702EC307
:1002D9007976E7787B96C3940840227879E6FFC45B
:1002E900540F78B2F6E51FB4030978B6E6B40103F2
:1002F9000211FB1211C112038178B676017877E6F3
:10030900F51F227870E664F8706D08E6641070676E
:100319007875E664027060786FE624F7787666701F
:100329005608E67021F526E526C378799650487473
:100339007A2526F8E6B5210A12136A120F9DE4F50B
:100349001F22052680E17877E66403702A751F036A
:10035900F526E526C3787996501D747A2526F8E6A0
:10036900B521107879E6247AF9E4FAFB120DBB7508
:070379001F0322052680DBB3
:01038000225A
:100DBB00E4F5291209F7FFC4135407F51578A5E6D6
:100DCB00700385150EEF131313540314600F146087
:100DDB001424027018750A00750B508016750A00E2
:100DEB00750BA0800E750A01750B408006750A0203
:100DFB00750B80EF5407F511E4F519F51AF5127818
:080E0B00B4F678B1F678B406E4
:010E130022BC
:0D140E0012136A120F9DE4789BF602114440
:10136A00E51B30E005789A760122E4789AF6F515BD
:07137A00F50EFF120E142214
:100F9D00E478B2F678B4F678B1F6FF74C12FF8E4C0
:100FAD00F674BD2FF8E4F674BF2FF8E4F674BB2F7A
:100FBD00F8E4F674B72FF8E4F674B92FF8E4F60FE9
:100FCD00BF02D8E4F516F51778A5F6F51878B6F63C
:030FDD0078A2F601
:010FE00022EE
:10123300789BE67847F6087603E408F6FB7A0079AC
:10124300477D03FC120E68AD07784AA605AF060872
:10125300A607784676057B007A007947E6FD7C0091
:03126300020F5324
:1008FD00E478B6F6789BE67847F6087603E51F7040
:10090D001F08F6FB7A0079477D03FC120E688E29CD
:10091D008F2A784AA607E52908F67846760521E854
:10092D00E51F6403600221E878B1E6702678497608
:10093D000208760308F6FB7A0079477D05FC120E56
:10094D00688E298F2A784CA607E52908F678467611
:10095D000721E878B1E664017038784976040876A5
:10096D000378B1E6784BF678B7E6784CF678B9E6C9
:10097D00784DF67B007A0079477D077C00120E6872
:10098D008E298F2A784EA607E52908F6784676092E
:10099D00804978B1E664027042784976060876039C
:1009AD0078B1E6784BF678B7E6784CF678B9E67814
:1009BD004DF678B8E6784EF678BAE6784FF67B00C5
:1009CD007A0079477D097C00120E688E298F2A786E
:1009DD0050A607E52908F67846760B7B007A007954
:0A09ED00477846E6FD7C00020F5338
:0F13CA007B007A007970786FE6FD7C00020F538C
:1011C100789BE67847F6087610E408F608F608F604
:1011D100087605FB7A0079477D06FC120E68AD079B
:1011E100784DA605AF0608A607784676087B007AF3
:0A11F100007947E6FD7C00020F5371
:1011FB00789BE67847F608769078B2E67849F67BE6
:10120B00007A0079477D037C00120E68AD07784A9F
:10121B00A605AF0608A607784676057B007A007907
:08122B0047E6FD7C00020F53B1
:10038100E4F52D7879E6540FFD7C0008E678B5F6A2
:10039100E67003ED600478B3760178B2E614600D7F
:1003A10014602524027024E478B4F6801F78B11615
:1003B100E6B4011178BCE618F678B8E618F678BA12
:1003C100E618F6800AE48004E48001E478B1F6ECF2
:1003D100600281E4ED24FE7002816404600281E424
:1003E10078B4E614604B1460062402600281E4785C
:1003F10075E670077F0B74702F800F7875E66401C6
:10040100701D787BE6240CFF2470F8E678C1F67441
:10041100712FF8E678BDF674722FF8E678BFF6789A
:10042100BDE678AFF678BFE678B0F678B4760181AC
:10043100E47875E670077F0B74702F800F7875E68E
:100441006401701D787BE6240CFF2470F8E678C205
:10045100F674712FF8E678BEF674722FF8E678C05C
:10046100F6807C7875E670217F0B74702FF8E67842
:10047100C1F674712FF8E678BDF674722FF8E6783C
:10048100BFF67F0E74702F80357875E66401704376
:10049100787BE6240CFF2470F8E678C1F674712F9E
:1004A100F8E678BDF674722FF8E678BFF6C3797670
:1004B100E7787B9624F5FEEF24032EFF2470F8E6FF
:1004C10078C2F674712FF8E678BEF674722FF8E6EA
:1004D10078C0F678BDE678AFF678BFE678B0F67802
:1004E100B476027878E6C4135407F50EE4789AF6E8
:1004F1007878E61313135403146012146017146010
:100501001C2403701A750A00750B508018750A00B7
:10051100750BA08010750A01750B4080088000756D
:100521000A02750B807878E65407F511E4F512F5A7
:0705310019F51AE518605EE0
:10053800789DE62401FFE433FE7C007D64120A5FA7
:100548008E2E8F2FAE16AF17AB07AA06E4C39FFFF8
:1005580074359EFE740C9400FDE494008F2C8E2B51
:100568008D2AF529AE2EAF2FE4FDAB2CAA2BA92A94
:10057800A829C3120AC64008E4F518F516F517228B
:0E058800AE2BC3E52F952CF517E52E9EF5162C
:010596002242
:1005970000C1814001C0804101C0804100C181404C
:1005A70001C0804100C1814000C1814001C080413C
:1005B70001C0804100C1814000C1814001C080412C
:1005C70000C1814001C0804101C0804100C181401C
:1005D70001C0804100C1814000C1814001C080410C
:1005E70000C1814001C0804101C0804100C18140FC
:1005F70000C1814001C0804101C0804100C18140EC
:1006070001C0804100C1814000C1814001C08041DB
:1006170001C0804100C1814000C1814001C08041CB
:1006270000C1814001C0804101C0804100C18140BB
:1006370000C1814001C0804101C0804100C18140AB
:1006470001C0804100C1814000C1814001C080419B
:1006570000C1814001C0804101C0804100C181408B
:1006670001C0804100C1814000C1814001C080417B
:1006770001C0804100C1814000C1814001C080416B
:1006870000C1814001C0804101C0804100C181405B
:1006970000C0C101C30302C2C60607C705C5C4041B
:1006A700CC0C0DCD0FCFCE0E0ACACB0BC90908C88B
:1006B700D81819D91BDBDA1A1EDEDF1FDD1D1CDC7B
:1006C70014D4D515D71716D6D21213D311D1D010EB
:1006D700F03031F133F3F23236F6F737F53534F4DB
:1006E7003CFCFD3DFF3F3EFEFA3A3BFB39F9F8384B
:1006F70028E8E929EB2B2AEAEE2E2FEF2DEDEC2C3B
:10070700E42425E527E7E62622E2E323E12120E0AA
:10071700A06061A163A3A26266A6A767A56564A49A
:100727006CACAD6DAF6F6EAEAA6A6BAB69A9A8680A
:1007370078B8B979BB7B7ABABE7E7FBF7DBDBC7CFA
:10074700B47475B577B7B67672B2B373B17170B06A
:10075700509091519353529296565797559594545A
:100767009C5C5D9D5F9F9E5E5A9A9B5B99595898CA
:10077700884849894B8B8A4A4E8E8F4F8D4D4C8CBA
:10078700448485458747468682424383418180402A
:0A0E68008B2B8A2C892D8C2E8D2FE8
:100E72007FFF7DFFE52F152FAA2E7002152E4A60E7
:100E820031AB2B052DE52DAA2C7002052C14F9127D
:100E920009F76DFB7A002497F582EA3405F583E4BD
:100EA200936FFD74972BF582EA3406F583E493FF82
:060EB20080C2EFFEEDFF1F
:010EB8002217
:100CBE00020B8BE493A3F8E493A34003F68001F2B6
:100CCE0008DFF48029E493A3F85407240CC8C33337
:100CDE00C4540F4420C8834004F456800146F6DF06
:100CEE00E4800B01020408102040809013BBE47EC8
:100CFE00019360BCA3FF543F30E509541FFEE493FB
:100D0E00A360010ECF54C025E060A840B8E493A3C1
:100D1E00FAE493A3F8E493A3C8C582C8CAC583CAEC
:100D2E00F0A3C8C582C8CAC583CADFE9DEE780BEA4
:0113C9000023
:1009F700BB010689828A83E0225002E722BBFE02FE
:090A0700E32289828A83E4932230
:100A1000BB010CE58229F582E5833AF583E022509B
:100A200006E92582F8E622BBFE06E92582F8E222E5
:0D0A3000E58229F582E5833AF583E49322FF
:100A3D00F8BB010DE58229F582E5833AF583E8F0EF
:100A4D00225006E92582C8F622BBFE05E92582C89B
:020A5D00F22283
:100A5F00EF8DF0A4A8F0CF8CF0A428CE8DF0A42EAB
:020A6F00FE2265
:100A7100BC000BBE0029EF8DF084FFADF022E4CC69
:100A8100F875F008EF2FFFEE33FEEC33FCEE9DEC32
:100A9100984005FCEE9DFE0FD5F0E9E4CEFD22ED78
:100AA100F8F5F0EE8420D21CFEADF075F008EF2FC2
:100AB100FFED33FD4007985006D5F0F222C398FDB3
:050AC1000FD5F0EA2250
:100AC600EB9FF5F0EA9E42F0E99D42F0E89C45F086
:010AD60022FD
:00000001FF
